{
  "contractName": "Twitter",
  "abi": [
    {
      "constant": false,
      "inputs": [
        {
          "internalType": "string",
          "name": "username",
          "type": "string"
        },
        {
          "internalType": "uint8",
          "name": "age",
          "type": "uint8"
        },
        {
          "internalType": "uint8",
          "name": "gender",
          "type": "uint8"
        }
      ],
      "name": "register",
      "outputs": [],
      "payable": false,
      "stateMutability": "nonpayable",
      "type": "function"
    },
    {
      "constant": true,
      "inputs": [
        {
          "internalType": "string",
          "name": "username",
          "type": "string"
        }
      ],
      "name": "getProfile",
      "outputs": [
        {
          "components": [
            {
              "internalType": "string",
              "name": "username",
              "type": "string"
            },
            {
              "internalType": "uint8",
              "name": "age",
              "type": "uint8"
            },
            {
              "internalType": "uint8",
              "name": "gender",
              "type": "uint8"
            },
            {
              "internalType": "uint256[]",
              "name": "posts",
              "type": "uint256[]"
            }
          ],
          "internalType": "struct Twitter.userObj",
          "name": "",
          "type": "tuple"
        }
      ],
      "payable": false,
      "stateMutability": "view",
      "type": "function"
    },
    {
      "constant": false,
      "inputs": [
        {
          "internalType": "string",
          "name": "text",
          "type": "string"
        }
      ],
      "name": "tweet",
      "outputs": [],
      "payable": false,
      "stateMutability": "nonpayable",
      "type": "function"
    },
    {
      "constant": true,
      "inputs": [
        {
          "internalType": "string",
          "name": "username",
          "type": "string"
        }
      ],
      "name": "getTweets",
      "outputs": [
        {
          "components": [
            {
              "internalType": "uint256",
              "name": "date",
              "type": "uint256"
            },
            {
              "internalType": "string",
              "name": "text",
              "type": "string"
            },
            {
              "internalType": "uint256[]",
              "name": "comments",
              "type": "uint256[]"
            }
          ],
          "internalType": "struct Twitter.tweetObj[]",
          "name": "",
          "type": "tuple[]"
        }
      ],
      "payable": false,
      "stateMutability": "view",
      "type": "function"
    },
    {
      "constant": false,
      "inputs": [
        {
          "internalType": "uint256",
          "name": "_postID",
          "type": "uint256"
        },
        {
          "internalType": "string",
          "name": "text",
          "type": "string"
        }
      ],
      "name": "comment",
      "outputs": [],
      "payable": false,
      "stateMutability": "nonpayable",
      "type": "function"
    },
    {
      "constant": true,
      "inputs": [
        {
          "internalType": "uint256",
          "name": "_postID",
          "type": "uint256"
        }
      ],
      "name": "getComments",
      "outputs": [
        {
          "components": [
            {
              "internalType": "string",
              "name": "username",
              "type": "string"
            },
            {
              "internalType": "string",
              "name": "text",
              "type": "string"
            },
            {
              "internalType": "uint256",
              "name": "date",
              "type": "uint256"
            }
          ],
          "internalType": "struct Twitter.commentObj[]",
          "name": "",
          "type": "tuple[]"
        }
      ],
      "payable": false,
      "stateMutability": "view",
      "type": "function"
    },
    {
      "constant": false,
      "inputs": [
        {
          "internalType": "string",
          "name": "from",
          "type": "string"
        },
        {
          "internalType": "uint256",
          "name": "postIndex",
          "type": "uint256"
        }
      ],
      "name": "retweet",
      "outputs": [],
      "payable": false,
      "stateMutability": "nonpayable",
      "type": "function"
    }
  ],
  "bytecode": "0x608060405260008060006101000a81548173ffffffffffffffffffffffffffffffffffffffff021916908373ffffffffffffffffffffffffffffffffffffffff16021790555060405180602001604052806000815250600190805190602001906200006c92919062000081565b503480156200007a57600080fd5b5062000130565b828054600181600116156101000203166002900490600052602060002090601f016020900481019282601f10620000c457805160ff1916838001178555620000f5565b82800160010185558215620000f5579182015b82811115620000f4578251825591602001919060010190620000d7565b5b50905062000104919062000108565b5090565b6200012d91905b80821115620001295760008160009055506001016200010f565b5090565b90565b61209f80620001406000396000f3fe608060405234801561001057600080fd5b506004361061007d5760003560e01c80633a3891bd1161005b5780633a3891bd146100fe5780638c0a7cf01461011a578063a4e56be61461014a578063fb46d4c5146101665761007d565b80630de98693146100825780631805c523146100b257806323edf697146100ce575b600080fd5b61009c600480360361009791908101906116dd565b610182565b6040516100a99190611e5b565b60405180910390f35b6100cc60048036036100c79190810190611802565b6103e3565b005b6100e860048036036100e391908101906117d9565b610588565b6040516100f59190611d77565b60405180910390f35b61011860048036036101139190810190611772565b6107ef565b005b610134600480360361012f91908101906116dd565b610cce565b6040516101419190611d99565b60405180910390f35b610164600480360361015f919081019061171e565b610f5c565b005b610180600480360361017b91908101906116dd565b6112e9565b005b61018a61145c565b600060058360405161019c9190611d24565b908152602001604051809103902060009054906101000a900473ffffffffffffffffffffffffffffffffffffffff1690506000809054906101000a900473ffffffffffffffffffffffffffffffffffffffff1673ffffffffffffffffffffffffffffffffffffffff168173ffffffffffffffffffffffffffffffffffffffff16141561025d576040517f08c379a000000000000000000000000000000000000000000000000000000000815260040161025490611e1b565b60405180910390fd5b600660008273ffffffffffffffffffffffffffffffffffffffff1673ffffffffffffffffffffffffffffffffffffffff168152602001908152602001600020604051806080016040529081600082018054600181600116156101000203166002900480601f0160208091040260200160405190810160405280929190818152602001828054600181600116156101000203166002900480156103405780601f1061031557610100808354040283529160200191610340565b820191906000526020600020905b81548152906001019060200180831161032357829003601f168201915b505050505081526020016001820160009054906101000a900460ff1660ff1660ff1681526020016001820160019054906101000a900460ff1660ff1660ff168152602001600282018054806020026020016040519081016040528092919081815260200182805480156103d257602002820191906000526020600020905b8154815260200190600101908083116103be575b505050505081525050915050919050565b6040518060600160405280600460003373ffffffffffffffffffffffffffffffffffffffff1673ffffffffffffffffffffffffffffffffffffffff1681526020019081526020016000208054600181600116156101000203166002900480601f0160208091040260200160405190810160405280929190818152602001828054600181600116156101000203166002900480156104c15780601f10610496576101008083540402835291602001916104c1565b820191906000526020600020905b8154815290600101906020018083116104a457829003601f168201915b5050505050815260200182815260200142815250600860006002548152602001908152602001600020600082015181600001908051906020019061050692919061148a565b50602082015181600101908051906020019061052392919061148a565b506040820151816002015590505060076000838152602001908152602001600020600201600254908060018154018082558091505090600182039060005260206000200160009091929091909150555060016002600082825401925050819055505050565b606080600760008481526020019081526020016000206002018054806020026020016040519081016040528092919081815260200182805480156105eb57602002820191906000526020600020905b8154815260200190600101908083116105d7575b505050505090506060815160405190808252806020026020018201604052801561062f57816020015b61061c61150a565b8152602001906001900390816106145790505b50905060008090505b82518110156107e4576008600084838151811061065157fe5b60200260200101518152602001908152602001600020604051806060016040529081600082018054600181600116156101000203166002900480601f01602080910402602001604051908101604052809291908181526020018280546001816001161561010002031660029004801561070b5780601f106106e05761010080835404028352916020019161070b565b820191906000526020600020905b8154815290600101906020018083116106ee57829003601f168201915b50505050508152602001600182018054600181600116156101000203166002900480601f0160208091040260200160405190810160405280929190818152602001828054600181600116156101000203166002900480156107ad5780601f10610782576101008083540402835291602001916107ad565b820191906000526020600020905b81548152906001019060200180831161079057829003601f168201915b505050505081526020016002820154815250508282815181106107cc57fe5b60200260200101819052508080600101915050610638565b508092505050919050565b61096a600460003373ffffffffffffffffffffffffffffffffffffffff1673ffffffffffffffffffffffffffffffffffffffff1681526020019081526020016000208054600181600116156101000203166002900480601f0160208091040260200160405190810160405280929190818152602001828054600181600116156101000203166002900480156108c55780601f1061089a576101008083540402835291602001916108c5565b820191906000526020600020905b8154815290600101906020018083116108a857829003601f168201915b505050505060018054600181600116156101000203166002900480601f0160208091040260200160405190810160405280929190818152602001828054600181600116156101000203166002900480156109605780601f1061093557610100808354040283529160200191610960565b820191906000526020600020905b81548152906001019060200180831161094357829003601f168201915b5050505050611412565b6109a9576040517f08c379a00000000000000000000000000000000000000000000000000000000081526004016109a090611e3b565b60405180910390fd5b6000809054906101000a900473ffffffffffffffffffffffffffffffffffffffff1673ffffffffffffffffffffffffffffffffffffffff166005846040516109f19190611d24565b908152602001604051809103902060009054906101000a900473ffffffffffffffffffffffffffffffffffffffff1673ffffffffffffffffffffffffffffffffffffffff1614610a76576040517f08c379a0000000000000000000000000000000000000000000000000000000008152600401610a6d90611ddb565b60405180910390fd5b60128260ff161015610abd576040517f08c379a0000000000000000000000000000000000000000000000000000000008152600401610ab490611dbb565b60405180910390fd5b60038160ff1610610b03576040517f08c379a0000000000000000000000000000000000000000000000000000000008152600401610afa90611dfb565b60405180910390fd5b33600584604051610b149190611d24565b908152602001604051809103902060006101000a81548173ffffffffffffffffffffffffffffffffffffffff021916908373ffffffffffffffffffffffffffffffffffffffff16021790555082600460003373ffffffffffffffffffffffffffffffffffffffff1673ffffffffffffffffffffffffffffffffffffffff1681526020019081526020016000209080519060200190610bb392919061152b565b5060405180608001604052808481526020018360ff1681526020018260ff1681526020016000604051908082528060200260200182016040528015610c075781602001602082028038833980820191505090505b50815250600660003373ffffffffffffffffffffffffffffffffffffffff1673ffffffffffffffffffffffffffffffffffffffff1681526020019081526020016000206000820151816000019080519060200190610c6692919061148a565b5060208201518160010160006101000a81548160ff021916908360ff16021790555060408201518160010160016101000a81548160ff021916908360ff1602179055506060820151816002019080519060200190610cc59291906115ab565b50905050505050565b60606000600583604051610ce29190611d24565b908152602001604051809103902060009054906101000a900473ffffffffffffffffffffffffffffffffffffffff1690506060600660008373ffffffffffffffffffffffffffffffffffffffff1673ffffffffffffffffffffffffffffffffffffffff168152602001908152602001600020600201805480602002602001604051908101604052809291908181526020018280548015610da157602002820191906000526020600020905b815481526020019060010190808311610d8d575b5050505050905060608151604051908082528060200260200182016040528015610de557816020015b610dd26115f8565b815260200190600190039081610dca5790505b50905060008090505b8251811015610f505760076000848381518110610e0757fe5b6020026020010151815260200190815260200160002060405180606001604052908160008201548152602001600182018054600181600116156101000203166002900480601f016020809104026020016040519081016040528092919081815260200182805460018160011615610100020316600290048015610ecb5780601f10610ea057610100808354040283529160200191610ecb565b820191906000526020600020905b815481529060010190602001808311610eae57829003601f168201915b5050505050815260200160028201805480602002602001604051908101604052809291908181526020018280548015610f2357602002820191906000526020600020905b815481526020019060010190808311610f0f575b505050505081525050828281518110610f3857fe5b60200260200101819052508080600101915050610dee565b50809350505050919050565b6000600583604051610f6e9190611d24565b908152602001604051809103902060009054906101000a900473ffffffffffffffffffffffffffffffffffffffff1690506060600660008373ffffffffffffffffffffffffffffffffffffffff1673ffffffffffffffffffffffffffffffffffffffff16815260200190815260200160002060020180548060200260200160405190810160405280929190818152602001828054801561102d57602002820191906000526020600020905b815481526020019060010190808311611019575b5050505050905061103c611619565b6007600083868151811061104c57fe5b6020026020010151815260200190815260200160002060405180606001604052908160008201548152602001600182018054600181600116156101000203166002900480601f0160208091040260200160405190810160405280929190818152602001828054600181600116156101000203166002900480156111105780601f106110e557610100808354040283529160200191611110565b820191906000526020600020905b8154815290600101906020018083116110f357829003601f168201915b505050505081526020016002820180548060200260200160405190810160405280929190818152602001828054801561116857602002820191906000526020600020905b815481526020019060010190808311611154575b505050505081525050905060606111b96040518060400160405280600e81526020017f526574776565742066726f6d3a2000000000000000000000000000000000000081525087846020015161142d565b9050604051806060016040528042815260200182815260200160006040519080825280602002602001820160405280156112025781602001602082028038833980820191505090505b5081525060076000600354815260200190815260200160002060008201518160000155602082015181600101908051906020019061124192919061148a565b50604082015181600201908051906020019061125e9291906115ab565b50905050600660003373ffffffffffffffffffffffffffffffffffffffff1673ffffffffffffffffffffffffffffffffffffffff16815260200190815260200160002060020160035490806001815401808255809150509060018203906000526020600020016000909192909190915055506001600360008282540192505081905550505050505050565b604051806060016040528042815260200182815260200160006040519080825280602002602001820160405280156113305781602001602082028038833980820191505090505b5081525060076000600354815260200190815260200160002060008201518160000155602082015181600101908051906020019061136f92919061148a565b50604082015181600201908051906020019061138c9291906115ab565b50905050600660003373ffffffffffffffffffffffffffffffffffffffff1673ffffffffffffffffffffffffffffffffffffffff1681526020019081526020016000206002016003549080600181540180825580915050906001820390600052602060002001600090919290919091505550600160036000828254019250508190555050565b60008180519060200120838051906020012014905092915050565b606083838360405160200161144493929190611d3b565b60405160208183030381529060405290509392505050565b604051806080016040528060608152602001600060ff168152602001600060ff168152602001606081525090565b828054600181600116156101000203166002900490600052602060002090601f016020900481019282601f106114cb57805160ff19168380011785556114f9565b828001600101855582156114f9579182015b828111156114f85782518255916020019190600101906114dd565b5b509050611506919061163a565b5090565b60405180606001604052806060815260200160608152602001600081525090565b828054600181600116156101000203166002900490600052602060002090601f016020900481019282601f1061156c57805160ff191683800117855561159a565b8280016001018555821561159a579182015b8281111561159957825182559160200191906001019061157e565b5b5090506115a7919061163a565b5090565b8280548282559060005260206000209081019282156115e7579160200282015b828111156115e65782518255916020019190600101906115cb565b5b5090506115f4919061163a565b5090565b60405180606001604052806000815260200160608152602001606081525090565b60405180606001604052806000815260200160608152602001606081525090565b61165c91905b80821115611658576000816000905550600101611640565b5090565b90565b600082601f83011261167057600080fd5b813561168361167e82611eaa565b611e7d565b9150808252602083016020830185838301111561169f57600080fd5b6116aa838284611fdb565b50505092915050565b6000813590506116c28161202e565b92915050565b6000813590506116d781612045565b92915050565b6000602082840312156116ef57600080fd5b600082013567ffffffffffffffff81111561170957600080fd5b6117158482850161165f565b91505092915050565b6000806040838503121561173157600080fd5b600083013567ffffffffffffffff81111561174b57600080fd5b6117578582860161165f565b9250506020611768858286016116b3565b9150509250929050565b60008060006060848603121561178757600080fd5b600084013567ffffffffffffffff8111156117a157600080fd5b6117ad8682870161165f565b93505060206117be868287016116c8565b92505060406117cf868287016116c8565b9150509250925092565b6000602082840312156117eb57600080fd5b60006117f9848285016116b3565b91505092915050565b6000806040838503121561181557600080fd5b6000611823858286016116b3565b925050602083013567ffffffffffffffff81111561184057600080fd5b61184c8582860161165f565b9150509250929050565b60006118628383611bee565b905092915050565b60006118768383611c45565b905092915050565b600061188a8383611d06565b60208301905092915050565b60006118a182611f06565b6118ab8185611f64565b9350836020820285016118bd85611ed6565b8060005b858110156118f957848403895281516118da8582611856565b94506118e583611f3d565b925060208a019950506001810190506118c1565b50829750879550505050505092915050565b600061191682611f11565b6119208185611f75565b93508360208202850161193285611ee6565b8060005b8581101561196e578484038952815161194f858261186a565b945061195a83611f4a565b925060208a01995050600181019050611936565b50829750879550505050505092915050565b600061198b82611f1c565b6119958185611f86565b93506119a083611ef6565b8060005b838110156119d15781516119b8888261187e565b97506119c383611f57565b9250506001810190506119a4565b5085935050505092915050565b60006119e982611f32565b6119f38185611fb9565b9350611a03818560208601611fea565b80840191505092915050565b6000611a1a82611f27565b611a248185611f97565b9350611a34818560208601611fea565b611a3d8161201d565b840191505092915050565b6000611a55600183611fb9565b91507f0a000000000000000000000000000000000000000000000000000000000000006000830152600182019050919050565b6000611a95602783611fa8565b91507f596f75206d757374206265206174206c6561737420313820746f20757365206460008301527f54776974746572000000000000000000000000000000000000000000000000006020830152604082019050919050565b6000611afb601c83611fa8565b91507f5468697320757365726e616d6520697320756e617661696c61626c65000000006000830152602082019050919050565b6000611b3b600e83611fa8565b91507f496e76616c69642067656e6465720000000000000000000000000000000000006000830152602082019050919050565b6000611b7b601083611fa8565b91507f496e76616c696420757365726e616d65000000000000000000000000000000006000830152602082019050919050565b6000611bbb601683611fa8565b91507f596f7520616c72656164792072656769737465726564000000000000000000006000830152602082019050919050565b60006060830160008301518482036000860152611c0b8282611a0f565b91505060208301518482036020860152611c258282611a0f565b9150506040830151611c3a6040860182611d06565b508091505092915050565b6000606083016000830151611c5d6000860182611d06565b5060208301518482036020860152611c758282611a0f565b91505060408301518482036040860152611c8f8282611980565b9150508091505092915050565b60006080830160008301518482036000860152611cb98282611a0f565b9150506020830151611cce6020860182611d15565b506040830151611ce16040860182611d15565b5060608301518482036060860152611cf98282611980565b9150508091505092915050565b611d0f81611fc4565b82525050565b611d1e81611fce565b82525050565b6000611d3082846119de565b915081905092915050565b6000611d4782866119de565b9150611d5382856119de565b9150611d5e82611a48565b9150611d6a82846119de565b9150819050949350505050565b60006020820190508181036000830152611d918184611896565b905092915050565b60006020820190508181036000830152611db3818461190b565b905092915050565b60006020820190508181036000830152611dd481611a88565b9050919050565b60006020820190508181036000830152611df481611aee565b9050919050565b60006020820190508181036000830152611e1481611b2e565b9050919050565b60006020820190508181036000830152611e3481611b6e565b9050919050565b60006020820190508181036000830152611e5481611bae565b9050919050565b60006020820190508181036000830152611e758184611c9c565b905092915050565b6000604051905081810181811067ffffffffffffffff82111715611ea057600080fd5b8060405250919050565b600067ffffffffffffffff821115611ec157600080fd5b601f19601f8301169050602081019050919050565b6000819050602082019050919050565b6000819050602082019050919050565b6000819050602082019050919050565b600081519050919050565b600081519050919050565b600081519050919050565b600081519050919050565b600081519050919050565b6000602082019050919050565b6000602082019050919050565b6000602082019050919050565b600082825260208201905092915050565b600082825260208201905092915050565b600082825260208201905092915050565b600082825260208201905092915050565b600082825260208201905092915050565b600081905092915050565b6000819050919050565b600060ff82169050919050565b82818337600083830152505050565b60005b83811015612008578082015181840152602081019050611fed565b83811115612017576000848401525b50505050565b6000601f19601f8301169050919050565b61203781611fc4565b811461204257600080fd5b50565b61204e81611fce565b811461205957600080fd5b5056fea365627a7a723158202c832178f6cb05f9211fa3cb71d30dd6ff5c2fd98dc72b4838a70ad8a76cd7d36c6578706572696d656e74616cf564736f6c634300050c0040",
  "source": "pragma solidity 0.5.12;\n\npragma experimental ABIEncoderV2;\n\ncontract Twitter{\n\n    //constants\n    address NULL_ADDR = 0x0000000000000000000000000000000000000000;\n    string NULL_STR = \"\";\n\n    //Object models\n    uint commentID;\n    uint tweetID;\n\n    struct userObj{\n        string username;\n        uint8 age;\n        uint8 gender;\n        uint[] posts;\n    }\n\n    struct tweetObj{\n        uint date;\n        string text;\n        uint[] comments;\n    }\n\n    struct commentObj{\n        string username;\n        string text;\n        uint date;\n    }\n\n    //database\n    mapping(address=>string) getUsername;\n    mapping(string=>address) getAddress;\n\n    mapping(address=>userObj) users;\n    mapping(uint=>tweetObj) tweets;\n    mapping(uint=>commentObj) comments;\n\n    //util functions\n    function compareString(string memory a, string memory b) internal pure returns(bool){\n       return keccak256(bytes(a)) == keccak256(bytes(b));\n    }\n\n    function concatString(string memory a, string memory b, string memory c) internal pure returns(string memory){\n        return string(abi.encodePacked(a,b,hex\"0a\",c));\n    }\n\n    //register\n    function register(string memory username, uint8 age, uint8 gender) public{\n        require(compareString(getUsername[msg.sender], NULL_STR), \"You already registered\");\n        require(getAddress[username] == NULL_ADDR, \"This username is unavailable\");\n        require(age>=18,\"You must be at least 18 to use dTwitter\");\n        require(gender<3,\"Invalid gender\");\n\n        //register new user\n        getAddress[username] = msg.sender;\n        getUsername[msg.sender] = username;\n        users[msg.sender] = userObj(username,age,gender, new uint[](0));\n    }\n\n    //get profile\n    function getProfile(string memory username) public view returns(userObj memory){\n      address id = getAddress[username];\n      require(id != NULL_ADDR, \"Invalid username\");\n\n      return users[id];\n    }\n\n    //tweet\n    function tweet(string memory text) public{\n        tweets[tweetID] = tweetObj(now, text, new uint[](0));\n        users[msg.sender].posts.push(tweetID);\n\n        tweetID += 1;\n    }\n\n    //get tweets\n    function getTweets(string memory username) public view returns(tweetObj[] memory){\n        address user = getAddress[username];\n        uint[] memory postIDs = users[user].posts;\n\n        tweetObj[] memory result = new tweetObj[](postIDs.length);\n\n        for (uint i=0; i<postIDs.length; i++){\n            result[i] = tweets[postIDs[i]];\n        }\n\n        return result;\n    }\n\n    function comment(uint _postID, string memory text) public{\n        comments[commentID] = commentObj(getUsername[msg.sender], text, now);\n        tweets[_postID].comments.push(commentID);\n\n        commentID += 1;\n    }\n\n    function getComments(uint _postID) public view returns(commentObj[] memory){\n        uint[] memory commentIDs = tweets[_postID].comments;\n\n        commentObj[] memory result = new commentObj[](commentIDs.length);\n\n        for (uint i=0; i<commentIDs.length; i++){\n            result[i] = comments[commentIDs[i]];\n        }\n\n        return result;\n    }\n\n    function retweet(string memory from, uint postIndex) public{\n        address id = getAddress[from];\n        uint[] memory postIDs = users[id].posts;\n        tweetObj memory tweet = tweets[postIDs[postIndex]];\n\n        string memory text = concatString(\"Retweet from: \", from, tweet.text);\n\n        //add as new post\n        tweets[tweetID] = tweetObj(now, text, new uint[](0));\n        users[msg.sender].posts.push(tweetID);\n        tweetID += 1;\n    }\n\n}\n",
  "sourcePath": "/Users/macos/Desktop/twitter/contracts/Twitter.sol",
  "compiler": {
    "name": "solc",
    "version": "0.5.12+commit.7709ece9.Emscripten.clang"
  },
  "schemaVersion": "3.0.11",
  "updatedAt": "2019-11-13T03:30:09.708Z",
  "devdoc": {
    "methods": {}
  },
  "userdoc": {
    "methods": {}
  }
}