{
  "contractName": "Twitter",
  "abi": [
    {
      "constant": false,
      "inputs": [
        {
          "internalType": "string",
          "name": "username",
          "type": "string"
        },
        {
          "internalType": "uint8",
          "name": "age",
          "type": "uint8"
        },
        {
          "internalType": "uint8",
          "name": "gender",
          "type": "uint8"
        }
      ],
      "name": "register",
      "outputs": [],
      "payable": false,
      "stateMutability": "nonpayable",
      "type": "function"
    },
    {
      "constant": true,
      "inputs": [
        {
          "internalType": "string",
          "name": "username",
          "type": "string"
        }
      ],
      "name": "getProfile",
      "outputs": [
        {
          "components": [
            {
              "internalType": "string",
              "name": "username",
              "type": "string"
            },
            {
              "internalType": "uint8",
              "name": "age",
              "type": "uint8"
            },
            {
              "internalType": "uint8",
              "name": "gender",
              "type": "uint8"
            },
            {
              "internalType": "uint256[]",
              "name": "posts",
              "type": "uint256[]"
            }
          ],
          "internalType": "struct Twitter.userObj",
          "name": "",
          "type": "tuple"
        }
      ],
      "payable": false,
      "stateMutability": "view",
      "type": "function"
    },
    {
      "constant": false,
      "inputs": [
        {
          "internalType": "string",
          "name": "text",
          "type": "string"
        }
      ],
      "name": "post",
      "outputs": [],
      "payable": false,
      "stateMutability": "nonpayable",
      "type": "function"
    },
    {
      "constant": true,
      "inputs": [
        {
          "internalType": "string",
          "name": "username",
          "type": "string"
        }
      ],
      "name": "getPosts",
      "outputs": [
        {
          "components": [
            {
              "internalType": "uint256",
              "name": "date",
              "type": "uint256"
            },
            {
              "internalType": "string",
              "name": "text",
              "type": "string"
            },
            {
              "internalType": "uint256[]",
              "name": "comments",
              "type": "uint256[]"
            }
          ],
          "internalType": "struct Twitter.postObj[]",
          "name": "",
          "type": "tuple[]"
        }
      ],
      "payable": false,
      "stateMutability": "view",
      "type": "function"
    },
    {
      "constant": false,
      "inputs": [
        {
          "internalType": "uint256",
          "name": "_postID",
          "type": "uint256"
        },
        {
          "internalType": "string",
          "name": "text",
          "type": "string"
        }
      ],
      "name": "comment",
      "outputs": [],
      "payable": false,
      "stateMutability": "nonpayable",
      "type": "function"
    },
    {
      "constant": true,
      "inputs": [
        {
          "internalType": "uint256",
          "name": "_postID",
          "type": "uint256"
        }
      ],
      "name": "getComments",
      "outputs": [
        {
          "components": [
            {
              "internalType": "string",
              "name": "username",
              "type": "string"
            },
            {
              "internalType": "string",
              "name": "text",
              "type": "string"
            },
            {
              "internalType": "uint256",
              "name": "date",
              "type": "uint256"
            }
          ],
          "internalType": "struct Twitter.commentObj[]",
          "name": "",
          "type": "tuple[]"
        }
      ],
      "payable": false,
      "stateMutability": "view",
      "type": "function"
    },
    {
      "constant": false,
      "inputs": [
        {
          "internalType": "string",
          "name": "from",
          "type": "string"
        },
        {
          "internalType": "uint256",
          "name": "postIndex",
          "type": "uint256"
        }
      ],
      "name": "retweet",
      "outputs": [],
      "payable": false,
      "stateMutability": "nonpayable",
      "type": "function"
    }
  ],
  "bytecode": "0x608060405260008060006101000a81548173ffffffffffffffffffffffffffffffffffffffff021916908373ffffffffffffffffffffffffffffffffffffffff16021790555060405180602001604052806000815250600190805190602001906200006c92919062000081565b503480156200007a57600080fd5b5062000130565b828054600181600116156101000203166002900490600052602060002090601f016020900481019282601f10620000c457805160ff1916838001178555620000f5565b82800160010185558215620000f5579182015b82811115620000f4578251825591602001919060010190620000d7565b5b50905062000104919062000108565b5090565b6200012d91905b80821115620001295760008160009055506001016200010f565b5090565b90565b611faf80620001406000396000f3fe608060405234801561001057600080fd5b506004361061007d5760003560e01c80633a3891bd1161005b5780633a3891bd146100fe5780638ee93cf31461011a578063a4e56be614610136578063ecf611f8146101525761007d565b80630de98693146100825780631805c523146100b257806323edf697146100ce575b600080fd5b61009c6004803603610097919081019061164d565b610182565b6040516100a99190611d6b565b60405180910390f35b6100cc60048036036100c79190810190611772565b610353565b005b6100e860048036036100e39190810190611749565b6104f8565b6040516100f59190611ca7565b60405180910390f35b610118600480360361011391908101906116e2565b61075f565b005b610134600480360361012f919081019061164d565b610c3e565b005b610150600480360361014b919081019061168e565b610d67565b005b61016c6004803603610167919081019061164d565b6110f4565b6040516101799190611cc9565b60405180910390f35b61018a6113cc565b600060058360405161019c9190611c54565b908152602001604051809103902060009054906101000a900473ffffffffffffffffffffffffffffffffffffffff169050600660008273ffffffffffffffffffffffffffffffffffffffff1673ffffffffffffffffffffffffffffffffffffffff168152602001908152602001600020604051806080016040529081600082018054600181600116156101000203166002900480601f0160208091040260200160405190810160405280929190818152602001828054600181600116156101000203166002900480156102b05780601f10610285576101008083540402835291602001916102b0565b820191906000526020600020905b81548152906001019060200180831161029357829003601f168201915b505050505081526020016001820160009054906101000a900460ff1660ff1660ff1681526020016001820160019054906101000a900460ff1660ff1660ff1681526020016002820180548060200260200160405190810160405280929190818152602001828054801561034257602002820191906000526020600020905b81548152602001906001019080831161032e575b505050505081525050915050919050565b6040518060600160405280600460003373ffffffffffffffffffffffffffffffffffffffff1673ffffffffffffffffffffffffffffffffffffffff1681526020019081526020016000208054600181600116156101000203166002900480601f0160208091040260200160405190810160405280929190818152602001828054600181600116156101000203166002900480156104315780601f1061040657610100808354040283529160200191610431565b820191906000526020600020905b81548152906001019060200180831161041457829003601f168201915b505050505081526020018281526020014281525060086000600254815260200190815260200160002060008201518160000190805190602001906104769291906113fa565b5060208201518160010190805190602001906104939291906113fa565b506040820151816002015590505060076000838152602001908152602001600020600201600254908060018154018082558091505090600182039060005260206000200160009091929091909150555060016002600082825401925050819055505050565b6060806007600084815260200190815260200160002060020180548060200260200160405190810160405280929190818152602001828054801561055b57602002820191906000526020600020905b815481526020019060010190808311610547575b505050505090506060815160405190808252806020026020018201604052801561059f57816020015b61058c61147a565b8152602001906001900390816105845790505b50905060008090505b825181101561075457600860008483815181106105c157fe5b60200260200101518152602001908152602001600020604051806060016040529081600082018054600181600116156101000203166002900480601f01602080910402602001604051908101604052809291908181526020018280546001816001161561010002031660029004801561067b5780601f106106505761010080835404028352916020019161067b565b820191906000526020600020905b81548152906001019060200180831161065e57829003601f168201915b50505050508152602001600182018054600181600116156101000203166002900480601f01602080910402602001604051908101604052809291908181526020018280546001816001161561010002031660029004801561071d5780601f106106f25761010080835404028352916020019161071d565b820191906000526020600020905b81548152906001019060200180831161070057829003601f168201915b5050505050815260200160028201548152505082828151811061073c57fe5b602002602001018190525080806001019150506105a8565b508092505050919050565b6108da600460003373ffffffffffffffffffffffffffffffffffffffff1673ffffffffffffffffffffffffffffffffffffffff1681526020019081526020016000208054600181600116156101000203166002900480601f0160208091040260200160405190810160405280929190818152602001828054600181600116156101000203166002900480156108355780601f1061080a57610100808354040283529160200191610835565b820191906000526020600020905b81548152906001019060200180831161081857829003601f168201915b505050505060018054600181600116156101000203166002900480601f0160208091040260200160405190810160405280929190818152602001828054600181600116156101000203166002900480156108d05780601f106108a5576101008083540402835291602001916108d0565b820191906000526020600020905b8154815290600101906020018083116108b357829003601f168201915b5050505050611382565b610919576040517f08c379a000000000000000000000000000000000000000000000000000000000815260040161091090611d4b565b60405180910390fd5b6000809054906101000a900473ffffffffffffffffffffffffffffffffffffffff1673ffffffffffffffffffffffffffffffffffffffff166005846040516109619190611c54565b908152602001604051809103902060009054906101000a900473ffffffffffffffffffffffffffffffffffffffff1673ffffffffffffffffffffffffffffffffffffffff16146109e6576040517f08c379a00000000000000000000000000000000000000000000000000000000081526004016109dd90611d0b565b60405180910390fd5b60128260ff161015610a2d576040517f08c379a0000000000000000000000000000000000000000000000000000000008152600401610a2490611ceb565b60405180910390fd5b60038160ff1610610a73576040517f08c379a0000000000000000000000000000000000000000000000000000000008152600401610a6a90611d2b565b60405180910390fd5b33600584604051610a849190611c54565b908152602001604051809103902060006101000a81548173ffffffffffffffffffffffffffffffffffffffff021916908373ffffffffffffffffffffffffffffffffffffffff16021790555082600460003373ffffffffffffffffffffffffffffffffffffffff1673ffffffffffffffffffffffffffffffffffffffff1681526020019081526020016000209080519060200190610b2392919061149b565b5060405180608001604052808481526020018360ff1681526020018260ff1681526020016000604051908082528060200260200182016040528015610b775781602001602082028038833980820191505090505b50815250600660003373ffffffffffffffffffffffffffffffffffffffff1673ffffffffffffffffffffffffffffffffffffffff1681526020019081526020016000206000820151816000019080519060200190610bd69291906113fa565b5060208201518160010160006101000a81548160ff021916908360ff16021790555060408201518160010160016101000a81548160ff021916908360ff1602179055506060820151816002019080519060200190610c3592919061151b565b50905050505050565b60405180606001604052804281526020018281526020016000604051908082528060200260200182016040528015610c855781602001602082028038833980820191505090505b50815250600760006003548152602001908152602001600020600082015181600001556020820151816001019080519060200190610cc49291906113fa565b506040820151816002019080519060200190610ce192919061151b565b50905050600660003373ffffffffffffffffffffffffffffffffffffffff1673ffffffffffffffffffffffffffffffffffffffff1681526020019081526020016000206002016003549080600181540180825580915050906001820390600052602060002001600090919290919091505550600160036000828254019250508190555050565b6000600583604051610d799190611c54565b908152602001604051809103902060009054906101000a900473ffffffffffffffffffffffffffffffffffffffff1690506060600660008373ffffffffffffffffffffffffffffffffffffffff1673ffffffffffffffffffffffffffffffffffffffff168152602001908152602001600020600201805480602002602001604051908101604052809291908181526020018280548015610e3857602002820191906000526020600020905b815481526020019060010190808311610e24575b50505050509050610e47611568565b60076000838681518110610e5757fe5b6020026020010151815260200190815260200160002060405180606001604052908160008201548152602001600182018054600181600116156101000203166002900480601f016020809104026020016040519081016040528092919081815260200182805460018160011615610100020316600290048015610f1b5780601f10610ef057610100808354040283529160200191610f1b565b820191906000526020600020905b815481529060010190602001808311610efe57829003601f168201915b5050505050815260200160028201805480602002602001604051908101604052809291908181526020018280548015610f7357602002820191906000526020600020905b815481526020019060010190808311610f5f575b50505050508152505090506060610fc46040518060400160405280600e81526020017f526574776565742066726f6d3a2000000000000000000000000000000000000081525087846020015161139d565b90506040518060600160405280428152602001828152602001600060405190808252806020026020018201604052801561100d5781602001602082028038833980820191505090505b5081525060076000600354815260200190815260200160002060008201518160000155602082015181600101908051906020019061104c9291906113fa565b50604082015181600201908051906020019061106992919061151b565b50905050600660003373ffffffffffffffffffffffffffffffffffffffff1673ffffffffffffffffffffffffffffffffffffffff16815260200190815260200160002060020160035490806001815401808255809150509060018203906000526020600020016000909192909190915055506001600360008282540192505081905550505050505050565b606060006005836040516111089190611c54565b908152602001604051809103902060009054906101000a900473ffffffffffffffffffffffffffffffffffffffff1690506060600660008373ffffffffffffffffffffffffffffffffffffffff1673ffffffffffffffffffffffffffffffffffffffff1681526020019081526020016000206002018054806020026020016040519081016040528092919081815260200182805480156111c757602002820191906000526020600020905b8154815260200190600101908083116111b3575b505050505090506060815160405190808252806020026020018201604052801561120b57816020015b6111f8611589565b8152602001906001900390816111f05790505b50905060008090505b8251811015611376576007600084838151811061122d57fe5b6020026020010151815260200190815260200160002060405180606001604052908160008201548152602001600182018054600181600116156101000203166002900480601f0160208091040260200160405190810160405280929190818152602001828054600181600116156101000203166002900480156112f15780601f106112c6576101008083540402835291602001916112f1565b820191906000526020600020905b8154815290600101906020018083116112d457829003601f168201915b505050505081526020016002820180548060200260200160405190810160405280929190818152602001828054801561134957602002820191906000526020600020905b815481526020019060010190808311611335575b50505050508152505082828151811061135e57fe5b60200260200101819052508080600101915050611214565b50809350505050919050565b60008180519060200120838051906020012014905092915050565b60608383836040516020016113b493929190611c6b565b60405160208183030381529060405290509392505050565b604051806080016040528060608152602001600060ff168152602001600060ff168152602001606081525090565b828054600181600116156101000203166002900490600052602060002090601f016020900481019282601f1061143b57805160ff1916838001178555611469565b82800160010185558215611469579182015b8281111561146857825182559160200191906001019061144d565b5b50905061147691906115aa565b5090565b60405180606001604052806060815260200160608152602001600081525090565b828054600181600116156101000203166002900490600052602060002090601f016020900481019282601f106114dc57805160ff191683800117855561150a565b8280016001018555821561150a579182015b828111156115095782518255916020019190600101906114ee565b5b50905061151791906115aa565b5090565b828054828255906000526020600020908101928215611557579160200282015b8281111561155657825182559160200191906001019061153b565b5b50905061156491906115aa565b5090565b60405180606001604052806000815260200160608152602001606081525090565b60405180606001604052806000815260200160608152602001606081525090565b6115cc91905b808211156115c85760008160009055506001016115b0565b5090565b90565b600082601f8301126115e057600080fd5b81356115f36115ee82611dba565b611d8d565b9150808252602083016020830185838301111561160f57600080fd5b61161a838284611eeb565b50505092915050565b60008135905061163281611f3e565b92915050565b60008135905061164781611f55565b92915050565b60006020828403121561165f57600080fd5b600082013567ffffffffffffffff81111561167957600080fd5b611685848285016115cf565b91505092915050565b600080604083850312156116a157600080fd5b600083013567ffffffffffffffff8111156116bb57600080fd5b6116c7858286016115cf565b92505060206116d885828601611623565b9150509250929050565b6000806000606084860312156116f757600080fd5b600084013567ffffffffffffffff81111561171157600080fd5b61171d868287016115cf565b935050602061172e86828701611638565b925050604061173f86828701611638565b9150509250925092565b60006020828403121561175b57600080fd5b600061176984828501611623565b91505092915050565b6000806040838503121561178557600080fd5b600061179385828601611623565b925050602083013567ffffffffffffffff8111156117b057600080fd5b6117bc858286016115cf565b9150509250929050565b60006117d28383611b1e565b905092915050565b60006117e68383611b75565b905092915050565b60006117fa8383611c36565b60208301905092915050565b600061181182611e16565b61181b8185611e74565b93508360208202850161182d85611de6565b8060005b85811015611869578484038952815161184a85826117c6565b945061185583611e4d565b925060208a01995050600181019050611831565b50829750879550505050505092915050565b600061188682611e21565b6118908185611e85565b9350836020820285016118a285611df6565b8060005b858110156118de57848403895281516118bf85826117da565b94506118ca83611e5a565b925060208a019950506001810190506118a6565b50829750879550505050505092915050565b60006118fb82611e2c565b6119058185611e96565b935061191083611e06565b8060005b8381101561194157815161192888826117ee565b975061193383611e67565b925050600181019050611914565b5085935050505092915050565b600061195982611e42565b6119638185611ec9565b9350611973818560208601611efa565b80840191505092915050565b600061198a82611e37565b6119948185611ea7565b93506119a4818560208601611efa565b6119ad81611f2d565b840191505092915050565b60006119c5602783611eb8565b91507f596f75206d757374206265206174206c6561737420313820746f20757365206460008301527f54776974746572000000000000000000000000000000000000000000000000006020830152604082019050919050565b6000611a2b601c83611eb8565b91507f5468697320757365726e616d6520697320756e617661696c61626c65000000006000830152602082019050919050565b6000611a6b600183611ec9565b91507f10000000000000000000000000000000000000000000000000000000000000006000830152600182019050919050565b6000611aab600e83611eb8565b91507f496e76616c69642067656e6465720000000000000000000000000000000000006000830152602082019050919050565b6000611aeb601683611eb8565b91507f596f7520616c72656164792072656769737465726564000000000000000000006000830152602082019050919050565b60006060830160008301518482036000860152611b3b828261197f565b91505060208301518482036020860152611b55828261197f565b9150506040830151611b6a6040860182611c36565b508091505092915050565b6000606083016000830151611b8d6000860182611c36565b5060208301518482036020860152611ba5828261197f565b91505060408301518482036040860152611bbf82826118f0565b9150508091505092915050565b60006080830160008301518482036000860152611be9828261197f565b9150506020830151611bfe6020860182611c45565b506040830151611c116040860182611c45565b5060608301518482036060860152611c2982826118f0565b9150508091505092915050565b611c3f81611ed4565b82525050565b611c4e81611ede565b82525050565b6000611c60828461194e565b915081905092915050565b6000611c77828661194e565b9150611c83828561194e565b9150611c8e82611a5e565b9150611c9a828461194e565b9150819050949350505050565b60006020820190508181036000830152611cc18184611806565b905092915050565b60006020820190508181036000830152611ce3818461187b565b905092915050565b60006020820190508181036000830152611d04816119b8565b9050919050565b60006020820190508181036000830152611d2481611a1e565b9050919050565b60006020820190508181036000830152611d4481611a9e565b9050919050565b60006020820190508181036000830152611d6481611ade565b9050919050565b60006020820190508181036000830152611d858184611bcc565b905092915050565b6000604051905081810181811067ffffffffffffffff82111715611db057600080fd5b8060405250919050565b600067ffffffffffffffff821115611dd157600080fd5b601f19601f8301169050602081019050919050565b6000819050602082019050919050565b6000819050602082019050919050565b6000819050602082019050919050565b600081519050919050565b600081519050919050565b600081519050919050565b600081519050919050565b600081519050919050565b6000602082019050919050565b6000602082019050919050565b6000602082019050919050565b600082825260208201905092915050565b600082825260208201905092915050565b600082825260208201905092915050565b600082825260208201905092915050565b600082825260208201905092915050565b600081905092915050565b6000819050919050565b600060ff82169050919050565b82818337600083830152505050565b60005b83811015611f18578082015181840152602081019050611efd565b83811115611f27576000848401525b50505050565b6000601f19601f8301169050919050565b611f4781611ed4565b8114611f5257600080fd5b50565b611f5e81611ede565b8114611f6957600080fd5b5056fea365627a7a723158203539b474c4d72ab3d65bfba391be3f14f313cc0044cb53e2b03b73d165dadda36c6578706572696d656e74616cf564736f6c634300050c0040",
  "source": "pragma solidity 0.5.12;\n\npragma experimental ABIEncoderV2;\n\ncontract Twitter{\n\n    //constants\n    address NULL_ADDR = 0x0000000000000000000000000000000000000000;\n    string NULL_STR = \"\";\n\n    //Object models\n    uint commentID;\n    uint postID;\n\n    struct userObj{\n        string username;\n        uint8 age;\n        uint8 gender;\n        uint[] posts;\n    }\n\n    struct postObj{\n        uint date;\n        string text;\n        uint[] comments;\n    }\n\n    struct commentObj{\n        string username;\n        string text;\n        uint date;\n    }\n\n    //database\n    mapping(address=>string) getUsername;\n    mapping(string=>address) getAddress;\n\n    mapping(address=>userObj) users;\n    mapping(uint=>postObj) posts;\n    mapping(uint=>commentObj) comments;\n\n    //util functions\n    function compareString(string memory a, string memory b) internal pure returns(bool){\n       return keccak256(bytes(a)) == keccak256(bytes(b));\n    }\n\n    function concatString(string memory a, string memory b, string memory c) internal pure returns(string memory){\n        return string(abi.encodePacked(a,b,hex\"10\",c));\n    }\n\n    //register\n    function register(string memory username, uint8 age, uint8 gender) public{\n        require(compareString(getUsername[msg.sender], NULL_STR), \"You already registered\");\n        require(getAddress[username] == NULL_ADDR, \"This username is unavailable\");\n        require(age>=18,\"You must be at least 18 to use dTwitter\");\n        require(gender<3,\"Invalid gender\");\n\n        //register new user\n        getAddress[username] = msg.sender;\n        getUsername[msg.sender] = username;\n        users[msg.sender] = userObj(username,age,gender, new uint[](0));\n    }\n\n    //get profile\n    function getProfile(string memory username) public view returns(userObj memory){\n      address id = getAddress[username];\n      return users[id];\n    }\n\n    //post\n    function post(string memory text) public{\n        posts[postID] = postObj(now, text, new uint[](0));\n        users[msg.sender].posts.push(postID);\n\n        postID += 1;\n    }\n\n    //get posts\n    function getPosts(string memory username) public view returns(postObj[] memory){\n        address user = getAddress[username];\n        uint[] memory postIDs = users[user].posts;\n\n        postObj[] memory result = new postObj[](postIDs.length);\n\n        for (uint i=0; i<postIDs.length; i++){\n            result[i] = posts[postIDs[i]];\n        }\n\n        return result;\n    }\n\n    function comment(uint _postID, string memory text) public{\n        comments[commentID] = commentObj(getUsername[msg.sender], text, now);\n        posts[_postID].comments.push(commentID);\n\n        commentID += 1;\n    }\n\n    function getComments(uint _postID) public view returns(commentObj[] memory){\n        uint[] memory commentIDs = posts[_postID].comments;\n\n        commentObj[] memory result = new commentObj[](commentIDs.length);\n\n        for (uint i=0; i<commentIDs.length; i++){\n            result[i] = comments[commentIDs[i]];\n        }\n\n        return result;\n    }\n\n    function retweet(string memory from, uint postIndex) public{\n        address id = getAddress[from];\n        uint[] memory postIDs = users[id].posts;\n        postObj memory tweet = posts[postIDs[postIndex]];\n\n        string memory text = concatString(\"Retweet from: \", from, tweet.text);\n\n        //add as new post\n        posts[postID] = postObj(now, text, new uint[](0));\n        users[msg.sender].posts.push(postID);\n        postID += 1;\n    }\n\n}\n",
  "sourcePath": "/Users/macos/Desktop/twitter/contracts/Twitter.sol",
  "compiler": {
    "name": "solc",
    "version": "0.5.12+commit.7709ece9.Emscripten.clang"
  },
  "schemaVersion": "3.0.11",
  "updatedAt": "2019-11-12T16:52:27.796Z",
  "devdoc": {
    "methods": {}
  },
  "userdoc": {
    "methods": {}
  }
}