{
  "contractName": "Twitter",
  "abi": [
    {
      "constant": false,
      "inputs": [
        {
          "internalType": "string",
          "name": "username",
          "type": "string"
        },
        {
          "internalType": "uint8",
          "name": "age",
          "type": "uint8"
        },
        {
          "internalType": "uint8",
          "name": "gender",
          "type": "uint8"
        }
      ],
      "name": "register",
      "outputs": [],
      "payable": false,
      "stateMutability": "nonpayable",
      "type": "function"
    },
    {
      "constant": true,
      "inputs": [
        {
          "internalType": "string",
          "name": "username",
          "type": "string"
        }
      ],
      "name": "getProfile",
      "outputs": [
        {
          "components": [
            {
              "internalType": "string",
              "name": "username",
              "type": "string"
            },
            {
              "internalType": "uint8",
              "name": "age",
              "type": "uint8"
            },
            {
              "internalType": "uint8",
              "name": "gender",
              "type": "uint8"
            },
            {
              "internalType": "uint256[]",
              "name": "posts",
              "type": "uint256[]"
            }
          ],
          "internalType": "struct Twitter.userObj",
          "name": "",
          "type": "tuple"
        }
      ],
      "payable": false,
      "stateMutability": "view",
      "type": "function"
    },
    {
      "constant": false,
      "inputs": [
        {
          "internalType": "string",
          "name": "text",
          "type": "string"
        }
      ],
      "name": "tweet",
      "outputs": [],
      "payable": false,
      "stateMutability": "nonpayable",
      "type": "function"
    },
    {
      "constant": true,
      "inputs": [
        {
          "internalType": "string",
          "name": "username",
          "type": "string"
        }
      ],
      "name": "getTweets",
      "outputs": [
        {
          "components": [
            {
              "internalType": "uint256",
              "name": "id",
              "type": "uint256"
            },
            {
              "internalType": "uint256",
              "name": "date",
              "type": "uint256"
            },
            {
              "internalType": "string",
              "name": "text",
              "type": "string"
            },
            {
              "internalType": "uint256[]",
              "name": "comments",
              "type": "uint256[]"
            }
          ],
          "internalType": "struct Twitter.tweetObj[]",
          "name": "",
          "type": "tuple[]"
        }
      ],
      "payable": false,
      "stateMutability": "view",
      "type": "function"
    },
    {
      "constant": false,
      "inputs": [
        {
          "internalType": "uint256",
          "name": "_postID",
          "type": "uint256"
        },
        {
          "internalType": "string",
          "name": "text",
          "type": "string"
        }
      ],
      "name": "comment",
      "outputs": [],
      "payable": false,
      "stateMutability": "nonpayable",
      "type": "function"
    },
    {
      "constant": true,
      "inputs": [
        {
          "internalType": "uint256",
          "name": "_postID",
          "type": "uint256"
        }
      ],
      "name": "getComments",
      "outputs": [
        {
          "components": [
            {
              "internalType": "uint256",
              "name": "id",
              "type": "uint256"
            },
            {
              "internalType": "string",
              "name": "username",
              "type": "string"
            },
            {
              "internalType": "string",
              "name": "text",
              "type": "string"
            },
            {
              "internalType": "uint256",
              "name": "date",
              "type": "uint256"
            }
          ],
          "internalType": "struct Twitter.commentObj[]",
          "name": "",
          "type": "tuple[]"
        }
      ],
      "payable": false,
      "stateMutability": "view",
      "type": "function"
    },
    {
      "constant": false,
      "inputs": [
        {
          "internalType": "string",
          "name": "from",
          "type": "string"
        },
        {
          "internalType": "uint256",
          "name": "postIndex",
          "type": "uint256"
        }
      ],
      "name": "retweet",
      "outputs": [],
      "payable": false,
      "stateMutability": "nonpayable",
      "type": "function"
    }
  ],
  "bytecode": "0x608060405260008060006101000a81548173ffffffffffffffffffffffffffffffffffffffff021916908373ffffffffffffffffffffffffffffffffffffffff16021790555060405180602001604052806000815250600190805190602001906200006c92919062000081565b503480156200007a57600080fd5b5062000130565b828054600181600116156101000203166002900490600052602060002090601f016020900481019282601f10620000c457805160ff1916838001178555620000f5565b82800160010185558215620000f5579182015b82811115620000f4578251825591602001919060010190620000d7565b5b50905062000104919062000108565b5090565b6200012d91905b80821115620001295760008160009055506001016200010f565b5090565b90565b61212e80620001406000396000f3fe608060405234801561001057600080fd5b506004361061007d5760003560e01c80633a3891bd1161005b5780633a3891bd146100fe5780638c0a7cf01461011a578063a4e56be61461014a578063fb46d4c5146101665761007d565b80630de98693146100825780631805c523146100b257806323edf697146100ce575b600080fd5b61009c60048036036100979190810190611746565b610182565b6040516100a99190611eea565b60405180910390f35b6100cc60048036036100c7919081019061186b565b6103e3565b005b6100e860048036036100e39190810190611842565b61059a565b6040516100f59190611e06565b60405180910390f35b610118600480360361011391908101906117db565b61080b565b005b610134600480360361012f9190810190611746565b610cea565b6040516101419190611e28565b60405180910390f35b610164600480360361015f9190810190611787565b610f82565b005b610180600480360361017b9190810190611746565b61132b565b005b61018a6114b0565b600060058360405161019c9190611db3565b908152602001604051809103902060009054906101000a900473ffffffffffffffffffffffffffffffffffffffff1690506000809054906101000a900473ffffffffffffffffffffffffffffffffffffffff1673ffffffffffffffffffffffffffffffffffffffff168173ffffffffffffffffffffffffffffffffffffffff16141561025d576040517f08c379a000000000000000000000000000000000000000000000000000000000815260040161025490611eaa565b60405180910390fd5b600660008273ffffffffffffffffffffffffffffffffffffffff1673ffffffffffffffffffffffffffffffffffffffff168152602001908152602001600020604051806080016040529081600082018054600181600116156101000203166002900480601f0160208091040260200160405190810160405280929190818152602001828054600181600116156101000203166002900480156103405780601f1061031557610100808354040283529160200191610340565b820191906000526020600020905b81548152906001019060200180831161032357829003601f168201915b505050505081526020016001820160009054906101000a900460ff1660ff1660ff1681526020016001820160019054906101000a900460ff1660ff1660ff168152602001600282018054806020026020016040519081016040528092919081815260200182805480156103d257602002820191906000526020600020905b8154815260200190600101908083116103be575b505050505081525050915050919050565b60405180608001604052806002548152602001600460003373ffffffffffffffffffffffffffffffffffffffff1673ffffffffffffffffffffffffffffffffffffffff1681526020019081526020016000208054600181600116156101000203166002900480601f0160208091040260200160405190810160405280929190818152602001828054600181600116156101000203166002900480156104c95780601f1061049e576101008083540402835291602001916104c9565b820191906000526020600020905b8154815290600101906020018083116104ac57829003601f168201915b50505050508152602001828152602001428152506008600060025481526020019081526020016000206000820151816000015560208201518160010190805190602001906105189291906114de565b5060408201518160020190805190602001906105359291906114de565b506060820151816003015590505060076000838152602001908152602001600020600301600254908060018154018082558091505090600182039060005260206000200160009091929091909150555060016002600082825401925050819055505050565b606080600760008481526020019081526020016000206003018054806020026020016040519081016040528092919081815260200182805480156105fd57602002820191906000526020600020905b8154815260200190600101908083116105e9575b505050505090506060815160405190808252806020026020018201604052801561064157816020015b61062e61155e565b8152602001906001900390816106265790505b50905060008090505b8251811015610800576008600084838151811061066357fe5b6020026020010151815260200190815260200160002060405180608001604052908160008201548152602001600182018054600181600116156101000203166002900480601f0160208091040260200160405190810160405280929190818152602001828054600181600116156101000203166002900480156107275780601f106106fc57610100808354040283529160200191610727565b820191906000526020600020905b81548152906001019060200180831161070a57829003601f168201915b50505050508152602001600282018054600181600116156101000203166002900480601f0160208091040260200160405190810160405280929190818152602001828054600181600116156101000203166002900480156107c95780601f1061079e576101008083540402835291602001916107c9565b820191906000526020600020905b8154815290600101906020018083116107ac57829003601f168201915b505050505081526020016003820154815250508282815181106107e857fe5b6020026020010181905250808060010191505061064a565b508092505050919050565b610986600460003373ffffffffffffffffffffffffffffffffffffffff1673ffffffffffffffffffffffffffffffffffffffff1681526020019081526020016000208054600181600116156101000203166002900480601f0160208091040260200160405190810160405280929190818152602001828054600181600116156101000203166002900480156108e15780601f106108b6576101008083540402835291602001916108e1565b820191906000526020600020905b8154815290600101906020018083116108c457829003601f168201915b505050505060018054600181600116156101000203166002900480601f01602080910402602001604051908101604052809291908181526020018280546001816001161561010002031660029004801561097c5780601f106109515761010080835404028352916020019161097c565b820191906000526020600020905b81548152906001019060200180831161095f57829003601f168201915b5050505050611466565b6109c5576040517f08c379a00000000000000000000000000000000000000000000000000000000081526004016109bc90611eca565b60405180910390fd5b6000809054906101000a900473ffffffffffffffffffffffffffffffffffffffff1673ffffffffffffffffffffffffffffffffffffffff16600584604051610a0d9190611db3565b908152602001604051809103902060009054906101000a900473ffffffffffffffffffffffffffffffffffffffff1673ffffffffffffffffffffffffffffffffffffffff1614610a92576040517f08c379a0000000000000000000000000000000000000000000000000000000008152600401610a8990611e6a565b60405180910390fd5b60128260ff161015610ad9576040517f08c379a0000000000000000000000000000000000000000000000000000000008152600401610ad090611e4a565b60405180910390fd5b60038160ff1610610b1f576040517f08c379a0000000000000000000000000000000000000000000000000000000008152600401610b1690611e8a565b60405180910390fd5b33600584604051610b309190611db3565b908152602001604051809103902060006101000a81548173ffffffffffffffffffffffffffffffffffffffff021916908373ffffffffffffffffffffffffffffffffffffffff16021790555082600460003373ffffffffffffffffffffffffffffffffffffffff1673ffffffffffffffffffffffffffffffffffffffff1681526020019081526020016000209080519060200190610bcf929190611586565b5060405180608001604052808481526020018360ff1681526020018260ff1681526020016000604051908082528060200260200182016040528015610c235781602001602082028038833980820191505090505b50815250600660003373ffffffffffffffffffffffffffffffffffffffff1673ffffffffffffffffffffffffffffffffffffffff1681526020019081526020016000206000820151816000019080519060200190610c829291906114de565b5060208201518160010160006101000a81548160ff021916908360ff16021790555060408201518160010160016101000a81548160ff021916908360ff1602179055506060820151816002019080519060200190610ce1929190611606565b50905050505050565b60606000600583604051610cfe9190611db3565b908152602001604051809103902060009054906101000a900473ffffffffffffffffffffffffffffffffffffffff1690506060600660008373ffffffffffffffffffffffffffffffffffffffff1673ffffffffffffffffffffffffffffffffffffffff168152602001908152602001600020600201805480602002602001604051908101604052809291908181526020018280548015610dbd57602002820191906000526020600020905b815481526020019060010190808311610da9575b5050505050905060608151604051908082528060200260200182016040528015610e0157816020015b610dee611653565b815260200190600190039081610de65790505b50905060008090505b8251811015610f765760076000848381518110610e2357fe5b602002602001015181526020019081526020016000206040518060800160405290816000820154815260200160018201548152602001600282018054600181600116156101000203166002900480601f016020809104026020016040519081016040528092919081815260200182805460018160011615610100020316600290048015610ef15780601f10610ec657610100808354040283529160200191610ef1565b820191906000526020600020905b815481529060010190602001808311610ed457829003601f168201915b5050505050815260200160038201805480602002602001604051908101604052809291908181526020018280548015610f4957602002820191906000526020600020905b815481526020019060010190808311610f35575b505050505081525050828281518110610f5e57fe5b60200260200101819052508080600101915050610e0a565b50809350505050919050565b6000600583604051610f949190611db3565b908152602001604051809103902060009054906101000a900473ffffffffffffffffffffffffffffffffffffffff1690506060600660008373ffffffffffffffffffffffffffffffffffffffff1673ffffffffffffffffffffffffffffffffffffffff16815260200190815260200160002060020180548060200260200160405190810160405280929190818152602001828054801561105357602002820191906000526020600020905b81548152602001906001019080831161103f575b5050505050905061106261167b565b6007600083868151811061107257fe5b602002602001015181526020019081526020016000206040518060800160405290816000820154815260200160018201548152602001600282018054600181600116156101000203166002900480601f0160208091040260200160405190810160405280929190818152602001828054600181600116156101000203166002900480156111405780601f1061111557610100808354040283529160200191611140565b820191906000526020600020905b81548152906001019060200180831161112357829003601f168201915b505050505081526020016003820180548060200260200160405190810160405280929190818152602001828054801561119857602002820191906000526020600020905b815481526020019060010190808311611184575b505050505081525050905060606111e96040518060400160405280600e81526020017f526574776565742066726f6d3a20000000000000000000000000000000000000815250878460400151611481565b905060405180608001604052806003548152602001428152602001828152602001600060405190808252806020026020018201604052801561123a5781602001602082028038833980820191505090505b50815250600760006003548152602001908152602001600020600082015181600001556020820151816001015560408201518160020190805190602001906112839291906114de565b5060608201518160030190805190602001906112a0929190611606565b50905050600660003373ffffffffffffffffffffffffffffffffffffffff1673ffffffffffffffffffffffffffffffffffffffff16815260200190815260200160002060020160035490806001815401808255809150509060018203906000526020600020016000909192909190915055506001600360008282540192505081905550505050505050565b60405180608001604052806003548152602001428152602001828152602001600060405190808252806020026020018201604052801561137a5781602001602082028038833980820191505090505b50815250600760006003548152602001908152602001600020600082015181600001556020820151816001015560408201518160020190805190602001906113c39291906114de565b5060608201518160030190805190602001906113e0929190611606565b50905050600660003373ffffffffffffffffffffffffffffffffffffffff1673ffffffffffffffffffffffffffffffffffffffff1681526020019081526020016000206002016003549080600181540180825580915050906001820390600052602060002001600090919290919091505550600160036000828254019250508190555050565b60008180519060200120838051906020012014905092915050565b606083838360405160200161149893929190611dca565b60405160208183030381529060405290509392505050565b604051806080016040528060608152602001600060ff168152602001600060ff168152602001606081525090565b828054600181600116156101000203166002900490600052602060002090601f016020900481019282601f1061151f57805160ff191683800117855561154d565b8280016001018555821561154d579182015b8281111561154c578251825591602001919060010190611531565b5b50905061155a91906116a3565b5090565b6040518060800160405280600081526020016060815260200160608152602001600081525090565b828054600181600116156101000203166002900490600052602060002090601f016020900481019282601f106115c757805160ff19168380011785556115f5565b828001600101855582156115f5579182015b828111156115f45782518255916020019190600101906115d9565b5b50905061160291906116a3565b5090565b828054828255906000526020600020908101928215611642579160200282015b82811115611641578251825591602001919060010190611626565b5b50905061164f91906116a3565b5090565b6040518060800160405280600081526020016000815260200160608152602001606081525090565b6040518060800160405280600081526020016000815260200160608152602001606081525090565b6116c591905b808211156116c15760008160009055506001016116a9565b5090565b90565b600082601f8301126116d957600080fd5b81356116ec6116e782611f39565b611f0c565b9150808252602083016020830185838301111561170857600080fd5b61171383828461206a565b50505092915050565b60008135905061172b816120bd565b92915050565b600081359050611740816120d4565b92915050565b60006020828403121561175857600080fd5b600082013567ffffffffffffffff81111561177257600080fd5b61177e848285016116c8565b91505092915050565b6000806040838503121561179a57600080fd5b600083013567ffffffffffffffff8111156117b457600080fd5b6117c0858286016116c8565b92505060206117d18582860161171c565b9150509250929050565b6000806000606084860312156117f057600080fd5b600084013567ffffffffffffffff81111561180a57600080fd5b611816868287016116c8565b935050602061182786828701611731565b925050604061183886828701611731565b9150509250925092565b60006020828403121561185457600080fd5b60006118628482850161171c565b91505092915050565b6000806040838503121561187e57600080fd5b600061188c8582860161171c565b925050602083013567ffffffffffffffff8111156118a957600080fd5b6118b5858286016116c8565b9150509250929050565b60006118cb8383611c57565b905092915050565b60006118df8383611cc1565b905092915050565b60006118f38383611d95565b60208301905092915050565b600061190a82611f95565b6119148185611ff3565b93508360208202850161192685611f65565b8060005b85811015611962578484038952815161194385826118bf565b945061194e83611fcc565b925060208a0199505060018101905061192a565b50829750879550505050505092915050565b600061197f82611fa0565b6119898185612004565b93508360208202850161199b85611f75565b8060005b858110156119d757848403895281516119b885826118d3565b94506119c383611fd9565b925060208a0199505060018101905061199f565b50829750879550505050505092915050565b60006119f482611fab565b6119fe8185612015565b9350611a0983611f85565b8060005b83811015611a3a578151611a2188826118e7565b9750611a2c83611fe6565b925050600181019050611a0d565b5085935050505092915050565b6000611a5282611fc1565b611a5c8185612048565b9350611a6c818560208601612079565b80840191505092915050565b6000611a8382611fb6565b611a8d8185612026565b9350611a9d818560208601612079565b611aa6816120ac565b840191505092915050565b6000611abe600183612048565b91507f0a000000000000000000000000000000000000000000000000000000000000006000830152600182019050919050565b6000611afe602783612037565b91507f596f75206d757374206265206174206c6561737420313820746f20757365206460008301527f54776974746572000000000000000000000000000000000000000000000000006020830152604082019050919050565b6000611b64601c83612037565b91507f5468697320757365726e616d6520697320756e617661696c61626c65000000006000830152602082019050919050565b6000611ba4600e83612037565b91507f496e76616c69642067656e6465720000000000000000000000000000000000006000830152602082019050919050565b6000611be4601083612037565b91507f496e76616c696420757365726e616d65000000000000000000000000000000006000830152602082019050919050565b6000611c24601683612037565b91507f596f7520616c72656164792072656769737465726564000000000000000000006000830152602082019050919050565b6000608083016000830151611c6f6000860182611d95565b5060208301518482036020860152611c878282611a78565b91505060408301518482036040860152611ca18282611a78565b9150506060830151611cb66060860182611d95565b508091505092915050565b6000608083016000830151611cd96000860182611d95565b506020830151611cec6020860182611d95565b5060408301518482036040860152611d048282611a78565b91505060608301518482036060860152611d1e82826119e9565b9150508091505092915050565b60006080830160008301518482036000860152611d488282611a78565b9150506020830151611d5d6020860182611da4565b506040830151611d706040860182611da4565b5060608301518482036060860152611d8882826119e9565b9150508091505092915050565b611d9e81612053565b82525050565b611dad8161205d565b82525050565b6000611dbf8284611a47565b915081905092915050565b6000611dd68286611a47565b9150611de28285611a47565b9150611ded82611ab1565b9150611df98284611a47565b9150819050949350505050565b60006020820190508181036000830152611e2081846118ff565b905092915050565b60006020820190508181036000830152611e428184611974565b905092915050565b60006020820190508181036000830152611e6381611af1565b9050919050565b60006020820190508181036000830152611e8381611b57565b9050919050565b60006020820190508181036000830152611ea381611b97565b9050919050565b60006020820190508181036000830152611ec381611bd7565b9050919050565b60006020820190508181036000830152611ee381611c17565b9050919050565b60006020820190508181036000830152611f048184611d2b565b905092915050565b6000604051905081810181811067ffffffffffffffff82111715611f2f57600080fd5b8060405250919050565b600067ffffffffffffffff821115611f5057600080fd5b601f19601f8301169050602081019050919050565b6000819050602082019050919050565b6000819050602082019050919050565b6000819050602082019050919050565b600081519050919050565b600081519050919050565b600081519050919050565b600081519050919050565b600081519050919050565b6000602082019050919050565b6000602082019050919050565b6000602082019050919050565b600082825260208201905092915050565b600082825260208201905092915050565b600082825260208201905092915050565b600082825260208201905092915050565b600082825260208201905092915050565b600081905092915050565b6000819050919050565b600060ff82169050919050565b82818337600083830152505050565b60005b8381101561209757808201518184015260208101905061207c565b838111156120a6576000848401525b50505050565b6000601f19601f8301169050919050565b6120c681612053565b81146120d157600080fd5b50565b6120dd8161205d565b81146120e857600080fd5b5056fea365627a7a72315820ba2790859d1ccb69ca09d114d6349dc856acd49c4636ec474344bb11428012236c6578706572696d656e74616cf564736f6c634300050c0040",
  "source": "pragma solidity 0.5.12;\n\npragma experimental ABIEncoderV2;\n\ncontract Twitter{\n\n    //constants\n    address NULL_ADDR = 0x0000000000000000000000000000000000000000;\n    string NULL_STR = \"\";\n\n    //Object models\n    uint commentID;\n    uint tweetID;\n\n    struct userObj{\n        string username;\n        uint8 age;\n        uint8 gender;\n        uint[] posts;\n    }\n\n    struct tweetObj{\n        uint id;\n        uint date;\n        string text;\n        uint[] comments;\n    }\n\n    struct commentObj{\n        uint id;\n        string username;\n        string text;\n        uint date;\n    }\n\n    //database\n    mapping(address=>string) getUsername;\n    mapping(string=>address) getAddress;\n\n    mapping(address=>userObj) users;\n    mapping(uint=>tweetObj) tweets;\n    mapping(uint=>commentObj) comments;\n\n    //util functions\n    function compareString(string memory a, string memory b) internal pure returns(bool){\n       return keccak256(bytes(a)) == keccak256(bytes(b));\n    }\n\n    function concatString(string memory a, string memory b, string memory c) internal pure returns(string memory){\n        return string(abi.encodePacked(a,b,hex\"0a\",c));\n    }\n\n    //register\n    function register(string memory username, uint8 age, uint8 gender) public{\n        require(compareString(getUsername[msg.sender], NULL_STR), \"You already registered\");\n        require(getAddress[username] == NULL_ADDR, \"This username is unavailable\");\n        require(age>=18,\"You must be at least 18 to use dTwitter\");\n        require(gender<3,\"Invalid gender\");\n\n        //register new user\n        getAddress[username] = msg.sender;\n        getUsername[msg.sender] = username;\n        users[msg.sender] = userObj(username,age,gender, new uint[](0));\n    }\n\n    //get profile\n    function getProfile(string memory username) public view returns(userObj memory){\n      address id = getAddress[username];\n      require(id != NULL_ADDR, \"Invalid username\");\n\n      return users[id];\n    }\n\n    //tweet\n    function tweet(string memory text) public{\n        tweets[tweetID] = tweetObj(tweetID, now, text, new uint[](0));\n        users[msg.sender].posts.push(tweetID);\n\n        tweetID += 1;\n    }\n\n    //get tweets\n    function getTweets(string memory username) public view returns(tweetObj[] memory){\n        address user = getAddress[username];\n        uint[] memory postIDs = users[user].posts;\n\n        tweetObj[] memory result = new tweetObj[](postIDs.length);\n\n        for (uint i=0; i<postIDs.length; i++){\n            result[i] = tweets[postIDs[i]];\n        }\n\n        return result;\n    }\n\n    function comment(uint _postID, string memory text) public{\n        comments[commentID] = commentObj(commentID, getUsername[msg.sender], text, now);\n        tweets[_postID].comments.push(commentID);\n\n        commentID += 1;\n    }\n\n    function getComments(uint _postID) public view returns(commentObj[] memory){\n        uint[] memory commentIDs = tweets[_postID].comments;\n\n        commentObj[] memory result = new commentObj[](commentIDs.length);\n\n        for (uint i=0; i<commentIDs.length; i++){\n            result[i] = comments[commentIDs[i]];\n        }\n\n        return result;\n    }\n\n    function retweet(string memory from, uint postIndex) public{\n        address id = getAddress[from];\n        uint[] memory postIDs = users[id].posts;\n        tweetObj memory _tweet = tweets[postIDs[postIndex]];\n\n        string memory text = concatString(\"Retweet from: \", from, _tweet.text);\n\n        //add as new post\n        tweets[tweetID] = tweetObj(tweetID, now, text, new uint[](0));\n        users[msg.sender].posts.push(tweetID);\n        tweetID += 1;\n    }\n\n}\n",
  "sourcePath": "/Users/macos/Desktop/twitter/contracts/Twitter.sol",
  "compiler": {
    "name": "solc",
    "version": "0.5.12+commit.7709ece9.Emscripten.clang"
  },
  "schemaVersion": "3.0.11",
  "updatedAt": "2019-11-13T09:35:16.301Z",
  "devdoc": {
    "methods": {}
  },
  "userdoc": {
    "methods": {}
  }
}