{
  "contractName": "Twitter",
  "abi": [
    {
      "constant": false,
      "inputs": [
        {
          "internalType": "string",
          "name": "username",
          "type": "string"
        },
        {
          "internalType": "uint8",
          "name": "age",
          "type": "uint8"
        },
        {
          "internalType": "uint8",
          "name": "gender",
          "type": "uint8"
        }
      ],
      "name": "register",
      "outputs": [],
      "payable": false,
      "stateMutability": "nonpayable",
      "type": "function"
    },
    {
      "constant": true,
      "inputs": [
        {
          "internalType": "string",
          "name": "username",
          "type": "string"
        }
      ],
      "name": "getProfile",
      "outputs": [
        {
          "components": [
            {
              "internalType": "string",
              "name": "username",
              "type": "string"
            },
            {
              "internalType": "uint8",
              "name": "age",
              "type": "uint8"
            },
            {
              "internalType": "uint8",
              "name": "gender",
              "type": "uint8"
            },
            {
              "internalType": "uint256[]",
              "name": "posts",
              "type": "uint256[]"
            }
          ],
          "internalType": "struct Twitter.userObj",
          "name": "",
          "type": "tuple"
        }
      ],
      "payable": false,
      "stateMutability": "view",
      "type": "function"
    },
    {
      "constant": false,
      "inputs": [
        {
          "internalType": "string",
          "name": "text",
          "type": "string"
        }
      ],
      "name": "post",
      "outputs": [],
      "payable": false,
      "stateMutability": "nonpayable",
      "type": "function"
    },
    {
      "constant": true,
      "inputs": [
        {
          "internalType": "string",
          "name": "username",
          "type": "string"
        }
      ],
      "name": "getPosts",
      "outputs": [
        {
          "components": [
            {
              "internalType": "uint256",
              "name": "date",
              "type": "uint256"
            },
            {
              "internalType": "string",
              "name": "text",
              "type": "string"
            },
            {
              "internalType": "uint256[]",
              "name": "comments",
              "type": "uint256[]"
            }
          ],
          "internalType": "struct Twitter.postObj[]",
          "name": "",
          "type": "tuple[]"
        }
      ],
      "payable": false,
      "stateMutability": "view",
      "type": "function"
    },
    {
      "constant": false,
      "inputs": [
        {
          "internalType": "uint256",
          "name": "_postID",
          "type": "uint256"
        },
        {
          "internalType": "string",
          "name": "text",
          "type": "string"
        }
      ],
      "name": "comment",
      "outputs": [],
      "payable": false,
      "stateMutability": "nonpayable",
      "type": "function"
    },
    {
      "constant": true,
      "inputs": [
        {
          "internalType": "uint256",
          "name": "_postID",
          "type": "uint256"
        }
      ],
      "name": "getComments",
      "outputs": [
        {
          "components": [
            {
              "internalType": "string",
              "name": "username",
              "type": "string"
            },
            {
              "internalType": "string",
              "name": "text",
              "type": "string"
            },
            {
              "internalType": "uint256",
              "name": "date",
              "type": "uint256"
            }
          ],
          "internalType": "struct Twitter.commentObj[]",
          "name": "",
          "type": "tuple[]"
        }
      ],
      "payable": false,
      "stateMutability": "view",
      "type": "function"
    },
    {
      "constant": false,
      "inputs": [
        {
          "internalType": "string",
          "name": "from",
          "type": "string"
        },
        {
          "internalType": "uint256",
          "name": "postIndex",
          "type": "uint256"
        }
      ],
      "name": "retweet",
      "outputs": [],
      "payable": false,
      "stateMutability": "nonpayable",
      "type": "function"
    }
  ],
  "bytecode": "0x608060405260008060006101000a81548173ffffffffffffffffffffffffffffffffffffffff021916908373ffffffffffffffffffffffffffffffffffffffff16021790555060405180602001604052806000815250600190805190602001906200006c92919062000081565b503480156200007a57600080fd5b5062000130565b828054600181600116156101000203166002900490600052602060002090601f016020900481019282601f10620000c457805160ff1916838001178555620000f5565b82800160010185558215620000f5579182015b82811115620000f4578251825591602001919060010190620000d7565b5b50905062000104919062000108565b5090565b6200012d91905b80821115620001295760008160009055506001016200010f565b5090565b90565b611f0d80620001406000396000f3fe608060405234801561001057600080fd5b506004361061007d5760003560e01c80633a3891bd1161005b5780633a3891bd146100fe5780638ee93cf31461011a578063a4e56be614610136578063ecf611f8146101525761007d565b80630de98693146100825780631805c523146100b257806323edf697146100ce575b600080fd5b61009c60048036036100979190810190611627565b610182565b6040516100a99190611cc9565b60405180910390f35b6100cc60048036036100c7919081019061174c565b610353565b005b6100e860048036036100e39190810190611723565b6104f8565b6040516100f59190611c05565b60405180910390f35b610118600480360361011391908101906116bc565b61075f565b005b610134600480360361012f9190810190611627565b610c3e565b005b610150600480360361014b9190810190611668565b610d67565b005b61016c60048036036101679190810190611627565b6110f4565b6040516101799190611c27565b60405180910390f35b61018a6113a6565b600060058360405161019c9190611bee565b908152602001604051809103902060009054906101000a900473ffffffffffffffffffffffffffffffffffffffff169050600660008273ffffffffffffffffffffffffffffffffffffffff1673ffffffffffffffffffffffffffffffffffffffff168152602001908152602001600020604051806080016040529081600082018054600181600116156101000203166002900480601f0160208091040260200160405190810160405280929190818152602001828054600181600116156101000203166002900480156102b05780601f10610285576101008083540402835291602001916102b0565b820191906000526020600020905b81548152906001019060200180831161029357829003601f168201915b505050505081526020016001820160009054906101000a900460ff1660ff1660ff1681526020016001820160019054906101000a900460ff1660ff1660ff1681526020016002820180548060200260200160405190810160405280929190818152602001828054801561034257602002820191906000526020600020905b81548152602001906001019080831161032e575b505050505081525050915050919050565b6040518060600160405280600460003373ffffffffffffffffffffffffffffffffffffffff1673ffffffffffffffffffffffffffffffffffffffff1681526020019081526020016000208054600181600116156101000203166002900480601f0160208091040260200160405190810160405280929190818152602001828054600181600116156101000203166002900480156104315780601f1061040657610100808354040283529160200191610431565b820191906000526020600020905b81548152906001019060200180831161041457829003601f168201915b505050505081526020018281526020014281525060086000600254815260200190815260200160002060008201518160000190805190602001906104769291906113d4565b5060208201518160010190805190602001906104939291906113d4565b506040820151816002015590505060076000838152602001908152602001600020600201600254908060018154018082558091505090600182039060005260206000200160009091929091909150555060016002600082825401925050819055505050565b6060806007600084815260200190815260200160002060020180548060200260200160405190810160405280929190818152602001828054801561055b57602002820191906000526020600020905b815481526020019060010190808311610547575b505050505090506060815160405190808252806020026020018201604052801561059f57816020015b61058c611454565b8152602001906001900390816105845790505b50905060008090505b825181101561075457600860008483815181106105c157fe5b60200260200101518152602001908152602001600020604051806060016040529081600082018054600181600116156101000203166002900480601f01602080910402602001604051908101604052809291908181526020018280546001816001161561010002031660029004801561067b5780601f106106505761010080835404028352916020019161067b565b820191906000526020600020905b81548152906001019060200180831161065e57829003601f168201915b50505050508152602001600182018054600181600116156101000203166002900480601f01602080910402602001604051908101604052809291908181526020018280546001816001161561010002031660029004801561071d5780601f106106f25761010080835404028352916020019161071d565b820191906000526020600020905b81548152906001019060200180831161070057829003601f168201915b5050505050815260200160028201548152505082828151811061073c57fe5b602002602001018190525080806001019150506105a8565b508092505050919050565b6108da600460003373ffffffffffffffffffffffffffffffffffffffff1673ffffffffffffffffffffffffffffffffffffffff1681526020019081526020016000208054600181600116156101000203166002900480601f0160208091040260200160405190810160405280929190818152602001828054600181600116156101000203166002900480156108355780601f1061080a57610100808354040283529160200191610835565b820191906000526020600020905b81548152906001019060200180831161081857829003601f168201915b505050505060018054600181600116156101000203166002900480601f0160208091040260200160405190810160405280929190818152602001828054600181600116156101000203166002900480156108d05780601f106108a5576101008083540402835291602001916108d0565b820191906000526020600020905b8154815290600101906020018083116108b357829003601f168201915b5050505050611382565b610919576040517f08c379a000000000000000000000000000000000000000000000000000000000815260040161091090611ca9565b60405180910390fd5b6000809054906101000a900473ffffffffffffffffffffffffffffffffffffffff1673ffffffffffffffffffffffffffffffffffffffff166005846040516109619190611bee565b908152602001604051809103902060009054906101000a900473ffffffffffffffffffffffffffffffffffffffff1673ffffffffffffffffffffffffffffffffffffffff16146109e6576040517f08c379a00000000000000000000000000000000000000000000000000000000081526004016109dd90611c69565b60405180910390fd5b60128260ff161015610a2d576040517f08c379a0000000000000000000000000000000000000000000000000000000008152600401610a2490611c49565b60405180910390fd5b60038160ff1610610a73576040517f08c379a0000000000000000000000000000000000000000000000000000000008152600401610a6a90611c89565b60405180910390fd5b33600584604051610a849190611bee565b908152602001604051809103902060006101000a81548173ffffffffffffffffffffffffffffffffffffffff021916908373ffffffffffffffffffffffffffffffffffffffff16021790555082600460003373ffffffffffffffffffffffffffffffffffffffff1673ffffffffffffffffffffffffffffffffffffffff1681526020019081526020016000209080519060200190610b23929190611475565b5060405180608001604052808481526020018360ff1681526020018260ff1681526020016000604051908082528060200260200182016040528015610b775781602001602082028038833980820191505090505b50815250600660003373ffffffffffffffffffffffffffffffffffffffff1673ffffffffffffffffffffffffffffffffffffffff1681526020019081526020016000206000820151816000019080519060200190610bd69291906113d4565b5060208201518160010160006101000a81548160ff021916908360ff16021790555060408201518160010160016101000a81548160ff021916908360ff1602179055506060820151816002019080519060200190610c359291906114f5565b50905050505050565b60405180606001604052804281526020018281526020016000604051908082528060200260200182016040528015610c855781602001602082028038833980820191505090505b50815250600760006003548152602001908152602001600020600082015181600001556020820151816001019080519060200190610cc49291906113d4565b506040820151816002019080519060200190610ce19291906114f5565b50905050600660003373ffffffffffffffffffffffffffffffffffffffff1673ffffffffffffffffffffffffffffffffffffffff1681526020019081526020016000206002016003549080600181540180825580915050906001820390600052602060002001600090919290919091505550600160036000828254019250508190555050565b6000600583604051610d799190611bee565b908152602001604051809103902060009054906101000a900473ffffffffffffffffffffffffffffffffffffffff1690506060600660008373ffffffffffffffffffffffffffffffffffffffff1673ffffffffffffffffffffffffffffffffffffffff168152602001908152602001600020600201805480602002602001604051908101604052809291908181526020018280548015610e3857602002820191906000526020600020905b815481526020019060010190808311610e24575b50505050509050610e47611542565b60076000838681518110610e5757fe5b6020026020010151815260200190815260200160002060405180606001604052908160008201548152602001600182018054600181600116156101000203166002900480601f016020809104026020016040519081016040528092919081815260200182805460018160011615610100020316600290048015610f1b5780601f10610ef057610100808354040283529160200191610f1b565b820191906000526020600020905b815481529060010190602001808311610efe57829003601f168201915b5050505050815260200160028201805480602002602001604051908101604052809291908181526020018280548015610f7357602002820191906000526020600020905b815481526020019060010190808311610f5f575b50505050508152505090506060610fc46040518060400160405280600e81526020017f526574776565742066726f6d3a2000000000000000000000000000000000000081525087846020015161139d565b90506040518060600160405280428152602001828152602001600060405190808252806020026020018201604052801561100d5781602001602082028038833980820191505090505b5081525060076000600354815260200190815260200160002060008201518160000155602082015181600101908051906020019061104c9291906113d4565b5060408201518160020190805190602001906110699291906114f5565b50905050600660008573ffffffffffffffffffffffffffffffffffffffff1673ffffffffffffffffffffffffffffffffffffffff16815260200190815260200160002060020160035490806001815401808255809150509060018203906000526020600020016000909192909190915055506001600360008282540192505081905550505050505050565b606060006005836040516111089190611bee565b908152602001604051809103902060009054906101000a900473ffffffffffffffffffffffffffffffffffffffff1690506060600660008373ffffffffffffffffffffffffffffffffffffffff1673ffffffffffffffffffffffffffffffffffffffff1681526020019081526020016000206002018054806020026020016040519081016040528092919081815260200182805480156111c757602002820191906000526020600020905b8154815260200190600101908083116111b3575b505050505090506060815160405190808252806020026020018201604052801561120b57816020015b6111f8611563565b8152602001906001900390816111f05790505b50905060008090505b8251811015611376576007600084838151811061122d57fe5b6020026020010151815260200190815260200160002060405180606001604052908160008201548152602001600182018054600181600116156101000203166002900480601f0160208091040260200160405190810160405280929190818152602001828054600181600116156101000203166002900480156112f15780601f106112c6576101008083540402835291602001916112f1565b820191906000526020600020905b8154815290600101906020018083116112d457829003601f168201915b505050505081526020016002820180548060200260200160405190810160405280929190818152602001828054801561134957602002820191906000526020600020905b815481526020019060010190808311611335575b50505050508152505082828151811061135e57fe5b60200260200101819052508080600101915050611214565b50809350505050919050565b60008180519060200120838051906020012014905092915050565b60609392505050565b604051806080016040528060608152602001600060ff168152602001600060ff168152602001606081525090565b828054600181600116156101000203166002900490600052602060002090601f016020900481019282601f1061141557805160ff1916838001178555611443565b82800160010185558215611443579182015b82811115611442578251825591602001919060010190611427565b5b5090506114509190611584565b5090565b60405180606001604052806060815260200160608152602001600081525090565b828054600181600116156101000203166002900490600052602060002090601f016020900481019282601f106114b657805160ff19168380011785556114e4565b828001600101855582156114e4579182015b828111156114e35782518255916020019190600101906114c8565b5b5090506114f19190611584565b5090565b828054828255906000526020600020908101928215611531579160200282015b82811115611530578251825591602001919060010190611515565b5b50905061153e9190611584565b5090565b60405180606001604052806000815260200160608152602001606081525090565b60405180606001604052806000815260200160608152602001606081525090565b6115a691905b808211156115a257600081600090555060010161158a565b5090565b90565b600082601f8301126115ba57600080fd5b81356115cd6115c882611d18565b611ceb565b915080825260208301602083018583830111156115e957600080fd5b6115f4838284611e49565b50505092915050565b60008135905061160c81611e9c565b92915050565b60008135905061162181611eb3565b92915050565b60006020828403121561163957600080fd5b600082013567ffffffffffffffff81111561165357600080fd5b61165f848285016115a9565b91505092915050565b6000806040838503121561167b57600080fd5b600083013567ffffffffffffffff81111561169557600080fd5b6116a1858286016115a9565b92505060206116b2858286016115fd565b9150509250929050565b6000806000606084860312156116d157600080fd5b600084013567ffffffffffffffff8111156116eb57600080fd5b6116f7868287016115a9565b935050602061170886828701611612565b925050604061171986828701611612565b9150509250925092565b60006020828403121561173557600080fd5b6000611743848285016115fd565b91505092915050565b6000806040838503121561175f57600080fd5b600061176d858286016115fd565b925050602083013567ffffffffffffffff81111561178a57600080fd5b611796858286016115a9565b9150509250929050565b60006117ac8383611ab8565b905092915050565b60006117c08383611b0f565b905092915050565b60006117d48383611bd0565b60208301905092915050565b60006117eb82611d74565b6117f58185611dd2565b93508360208202850161180785611d44565b8060005b85811015611843578484038952815161182485826117a0565b945061182f83611dab565b925060208a0199505060018101905061180b565b50829750879550505050505092915050565b600061186082611d7f565b61186a8185611de3565b93508360208202850161187c85611d54565b8060005b858110156118b8578484038952815161189985826117b4565b94506118a483611db8565b925060208a01995050600181019050611880565b50829750879550505050505092915050565b60006118d582611d8a565b6118df8185611df4565b93506118ea83611d64565b8060005b8381101561191b57815161190288826117c8565b975061190d83611dc5565b9250506001810190506118ee565b5085935050505092915050565b600061193382611da0565b61193d8185611e27565b935061194d818560208601611e58565b80840191505092915050565b600061196482611d95565b61196e8185611e05565b935061197e818560208601611e58565b61198781611e8b565b840191505092915050565b600061199f602783611e16565b91507f596f75206d757374206265206174206c6561737420313820746f20757365206460008301527f54776974746572000000000000000000000000000000000000000000000000006020830152604082019050919050565b6000611a05601c83611e16565b91507f5468697320757365726e616d6520697320756e617661696c61626c65000000006000830152602082019050919050565b6000611a45600e83611e16565b91507f496e76616c69642067656e6465720000000000000000000000000000000000006000830152602082019050919050565b6000611a85601683611e16565b91507f596f7520616c72656164792072656769737465726564000000000000000000006000830152602082019050919050565b60006060830160008301518482036000860152611ad58282611959565b91505060208301518482036020860152611aef8282611959565b9150506040830151611b046040860182611bd0565b508091505092915050565b6000606083016000830151611b276000860182611bd0565b5060208301518482036020860152611b3f8282611959565b91505060408301518482036040860152611b5982826118ca565b9150508091505092915050565b60006080830160008301518482036000860152611b838282611959565b9150506020830151611b986020860182611bdf565b506040830151611bab6040860182611bdf565b5060608301518482036060860152611bc382826118ca565b9150508091505092915050565b611bd981611e32565b82525050565b611be881611e3c565b82525050565b6000611bfa8284611928565b915081905092915050565b60006020820190508181036000830152611c1f81846117e0565b905092915050565b60006020820190508181036000830152611c418184611855565b905092915050565b60006020820190508181036000830152611c6281611992565b9050919050565b60006020820190508181036000830152611c82816119f8565b9050919050565b60006020820190508181036000830152611ca281611a38565b9050919050565b60006020820190508181036000830152611cc281611a78565b9050919050565b60006020820190508181036000830152611ce38184611b66565b905092915050565b6000604051905081810181811067ffffffffffffffff82111715611d0e57600080fd5b8060405250919050565b600067ffffffffffffffff821115611d2f57600080fd5b601f19601f8301169050602081019050919050565b6000819050602082019050919050565b6000819050602082019050919050565b6000819050602082019050919050565b600081519050919050565b600081519050919050565b600081519050919050565b600081519050919050565b600081519050919050565b6000602082019050919050565b6000602082019050919050565b6000602082019050919050565b600082825260208201905092915050565b600082825260208201905092915050565b600082825260208201905092915050565b600082825260208201905092915050565b600082825260208201905092915050565b600081905092915050565b6000819050919050565b600060ff82169050919050565b82818337600083830152505050565b60005b83811015611e76578082015181840152602081019050611e5b565b83811115611e85576000848401525b50505050565b6000601f19601f8301169050919050565b611ea581611e32565b8114611eb057600080fd5b50565b611ebc81611e3c565b8114611ec757600080fd5b5056fea365627a7a723158209d1a3da77796dae2dea58119e14c432cdf38d8260360c74af1ff36642619910e6c6578706572696d656e74616cf564736f6c634300050c0040",
  "source": "pragma solidity 0.5.12;\n\npragma experimental ABIEncoderV2;\n\ncontract Twitter{\n\n    //constants\n    address NULL_ADDR = 0x0000000000000000000000000000000000000000;\n    string NULL_STR = \"\";\n\n    //Object models\n    uint commentID;\n    uint postID;\n\n    struct userObj{\n        string username;\n        uint8 age;\n        uint8 gender;\n        uint[] posts;\n    }\n\n    struct postObj{\n        uint date;\n        string text;\n        uint[] comments;\n    }\n\n    struct commentObj{\n        string username;\n        string text;\n        uint date;\n    }\n\n    //database\n    mapping(address=>string) getUsername;\n    mapping(string=>address) getAddress;\n\n    mapping(address=>userObj) users;\n    mapping(uint=>postObj) posts;\n    mapping(uint=>commentObj) comments;\n\n    //util functions\n    function compareString(string memory a, string memory b) internal pure returns(bool){\n       return keccak256(bytes(a)) == keccak256(bytes(b));\n    }\n\n    function concatString(string memory a, string memory b, string memory c) internal pure returns(string memory){\n        assembly{\n\n        }\n    }\n\n\n    //register\n    function register(string memory username, uint8 age, uint8 gender) public{\n        require(compareString(getUsername[msg.sender], NULL_STR), \"You already registered\");\n        require(getAddress[username] == NULL_ADDR, \"This username is unavailable\");\n        require(age>=18,\"You must be at least 18 to use dTwitter\");\n        require(gender<3,\"Invalid gender\");\n\n        //register new user\n        getAddress[username] = msg.sender;\n        getUsername[msg.sender] = username;\n        users[msg.sender] = userObj(username,age,gender, new uint[](0));\n    }\n\n    //get profile\n    function getProfile(string memory username) public view returns(userObj memory){\n      address id = getAddress[username];\n      return users[id];\n    }\n\n    //post\n    function post(string memory text) public{\n        posts[postID] = postObj(now, text, new uint[](0));\n        users[msg.sender].posts.push(postID);\n\n        postID += 1;\n    }\n\n    //get posts\n    function getPosts(string memory username) public view returns(postObj[] memory){\n        address user = getAddress[username];\n        uint[] memory postIDs = users[user].posts;\n\n        postObj[] memory result = new postObj[](postIDs.length);\n\n        for (uint i=0; i<postIDs.length; i++){\n            result[i] = posts[postIDs[i]];\n        }\n\n        return result;\n    }\n\n    function comment(uint _postID, string memory text) public{\n        comments[commentID] = commentObj(getUsername[msg.sender], text, now);\n        posts[_postID].comments.push(commentID);\n\n        commentID += 1;\n    }\n\n    function getComments(uint _postID) public view returns(commentObj[] memory){\n        uint[] memory commentIDs = posts[_postID].comments;\n\n        commentObj[] memory result = new commentObj[](commentIDs.length);\n\n        for (uint i=0; i<commentIDs.length; i++){\n            result[i] = comments[commentIDs[i]];\n        }\n\n        return result;\n    }\n\n    function retweet(string memory from, uint postIndex) public{\n        address id = getAddress[from];\n        uint[] memory postIDs = users[id].posts;\n        postObj memory tweet = posts[postIDs[postIndex]];\n\n        string memory text = concatString(\"Retweet from: \", from, tweet.text);\n\n        //add as new post\n        posts[postID] = postObj(now, text, new uint[](0));\n        users[id].posts.push(postID);\n        postID += 1;\n    }\n\n\n\n\n\n\n}\n",
  "sourcePath": "/Users/macos/Desktop/twitter/contracts/Twitter.sol",
  "compiler": {
    "name": "solc",
    "version": "0.5.12+commit.7709ece9.Emscripten.clang"
  },
  "schemaVersion": "3.0.11",
  "updatedAt": "2019-11-12T10:28:48.091Z",
  "devdoc": {
    "methods": {}
  },
  "userdoc": {
    "methods": {}
  }
}